:080000000C945C000C948F00CD
:100008000C9400000C9400000C9400000C94000068
:100018000C9400000C9400000C9400000C94000058
:100028000C9400000C9400000C9400000C94000048
:100038000C9400000C9400000C9400000C94000038
:100048000C9400000C9400000C9400000C94000028
:100058000C9400000C9400000C9400000C94000018
:100068000C9400000C9400000C9400000C94B9004F
:100078000C9400000C9400000C9400000C940000F8
:100088000C940000010080C01027E80364000A00F7
:10009800010000100001100001000000020008002B
:1000A8008C00020000058E0002000405A20000007A
:1000B800F894EE27ECBBF1E0F5BFE5BFE0936C00E8
:1000C800F8E1F1BDE1BD8DE0A2E0BB27ED938A9593
:1000D800E9F780E090E1A0E0B1E0ED930197E9F75E
:1000E8008BBFE4EAF0E085919591009761F0A591C6
:1000F800B59105901590BF01F00105900D920197FB
:10010800E1F7FB01F0CFEFEFEDBFE0E1EEBFC0E0BC
:10011800D5E00C94DF00EA93FA93EFB7EA93819B5A
:1001280011C0EFEFFFEFE815F90549F466247724CD
:10013800E0E0F0E0FDBDECBDE1E0F0E04F014CB4E3
:100148005DB40EC0E1E0F0E0E815F90539F4E0E04F
:10015800F0E0FDBDECBDEFEFFFEF4F016CB47DB4F7
:10016800E991EFBFF991E99118950A921A92FA92DA
:100178006A937A938A939A93AA93BA93EA93FA938F
:10018800EFB7EA934A920E94F5016A920E94F5013C
:10019800E0E0E0938800E0938900E991EFBFF991EE
:1001A800E991B991A9919991899179916991F99078
:1001B800199009901895E0E0EBBBEABBE8BBE0E1D9
:1001C800E7BBE0E0E5BBE4BBE2BBE1BBE2E0E3B9EF
:1001D800E0E0E2B9E0936200E0936100E09365003B
:1001E800E0936400E0BFE3BFE2BFEFEFE1BFE0E010
:1001F800EFBDE7E0EEBDE0E0EDBDECBDE7BDE6BD7F
:10020800EBBDEABDE9BDE8BDE0937900E093780075
:10021800E5BDE4BDE3BDE0938B00E1E0E0938A0037
:10022800E0E0E0938900E0938800E0938100E093A8
:100238008000E0938700E0938600E0938500E093D8
:100248008400E0938300E0938200E3E0E0936A0097
:10025800E0E0EABFE1E0E9BFE8BFE2E0E7BFE4E0F1
:10026800E0937D00E0E8E8B9E0E0E0BDEBB9E8E064
:10027800EAB9E6E0E0939500E0E0E0939000E7E07B
:10028800E9B9E0E1EA930E94BA017894FFCFFFCF81
:10029800FFE0FA95F1F70895AAB3AF70AABBD99A0F
:1002A800D8980E944C01DA9A0E944C01A9B3DA98B6
:1002B8000E944C01DA9A0E944C01DA98A7FDF1CF0E
:1002C8000895A07FAB2BABBBDA9A0E944C01DA9859
:1002D8000E944C010895D998AAB3A76FAABBBBB3D3
:1002E800BF70A8810E946501A881A2950E9465013E
:1002F800D99A21960895DA9A0E944C01E9B3DA98BE
:100308000E944C01E07F08950E944C010E947F01E9
:10031800AE2F0E947F01D998E295EA2B08950E949A
:100328005001E2E0EA930E946F010E945001ECE064
:10033800EA930E946F010E945001E1E0EA930E9453
:100348006F01E0E0AE2EBE2E0895AA27BB271197B5
:10035800F1F70895D998AAB3A76FAABBBBB3BF702A
:10036800A8810E946501D99A21960895DA98D898AB
:10037800D880E881E058E0930205E881E054E093F2
:1003880003050E94FB010E94FB010E94FB010E94E1
:10039800A901E0E2EA930E94AE010E94A901E8E205
:1003A8000E940102E4E00E940102E5E80E940102C5
:1003B800AAB3AF70AABBD99A0E948801E53011F0A0
:1003C800E0E009C00E945001E6E0EA930E946F0154
:1003D8000E949301E1E0219608955F9BFECFECB166
:1003E80008955D9BFECFE881ECB9219608950E949F
:1003F800A901E0E3EA930C94AE01EA930E946F012D
:100408000C94A9015A934A933A932A931A930A93FC
:1004180008955D814C813B812A8119810881089565
:00000001FF
